:020000040800F2
:10000000005000209D0600089D0400089F04000881
:10001000A1040008A3040008A504000800000000D3
:10002000000000000000000000000000A70400081D
:10003000A904000800000000AB040008AD0400089B
:10004000E5060008E5060008E5060008E5060008E4
:10005000E5060008E5060008E5060008E5060008D4
:10006000E5060008E5060008E5060008E5060008C4
:10007000E5060008E5060008E5060008E5060008B4
:10008000E5060008E5060008E5060008B1040008DA
:10009000BD040008E5060008E5060008E5060008BE
:1000A000E5060008E5060008E5060008E506000884
:1000B000E5060008E5060008E5060008E506000874
:1000C000E5060008E5060008E5060008E506000864
:1000D000E5060008E5060008E5060008E506000854
:1000E000E5060008E5060008E50600080000000037
:1000F0000000000000000000000000000000000000
:0C01000000000000000000005FF808F1A3
:10010C0010B5054C237833B9044B13B10448AFF345
:10011C0000800123237010BDD801002000000000D6
:10012C00DC4A000808B5034B1BB103490348AFF385
:10013C00008008BD00000000DC010020DC4A000843
:10014C00102210B588B00DEB0200002103F0ABFDBE
:10015C00184B194C9A69204642F010029A619A6920
:10016C004FF4005102F010020192019A9A6942F088
:10017C0020029A619A6902F020020292029A9A690C
:10018C0042F004029A619B69002203F0040303937A
:10019C00039B00F029FC4FF4005201230021CDE910
:1001AC00042302232046CDE9061304A900F042FBE8
:1001BC0008B010BD001002400010014070B594B0A2
:1001CC00142200210CA803F06EFD1422102500212E
:1001DC000DEB020003F067FD2A46002101A803F095
:1001EC0062FD01244FF480330226CDE90A43CDE9A8
:1001FC0011634FF480130AA80E94139301F08AFA3A
:10020C0008B172B6FEE70F23CDE905364FF48063D3
:10021C000790CDE90830214605A801F03DFC08B156
:10022C0072B6FEE74FF4800301A80195049301F028
:10023C00CFFC08B172B6FEE714B070BD2DE9FF41DA
:10024C002E23284801A90025ADF8043003F034FD15
:10025C002F460446244E002001A903F02DFDA04694
:10026C000446F0B1A0EB0802002AD8BF0122414697
:10027C00C8BF02F1FF3202A80297ADF80C708DF8DE
:10028C000E7003F0E8FD052D08D8DFE805F003112A
:10029C00161B202502A803F075FB30600135072DD5
:1002AC00D9D101220020114B1A7004B0BDE8F081A5
:1002BC0002A803F067FB7060F0E702A803F062FB92
:1002CC00B060EBE702A803F05DFBF060E6E702A884
:1002DC0003F058FB3061E1E702A803F053FB7061B7
:1002EC00DCE700BFF401002038020020500200209F
:1002FC0008B5094B5A683AB1084801224FF400512D
:10030C0000F072FB052008BD04484FF4005100F0CA
:10031C006BFB0620F7E700BF3802002000100140FD
:10032C0010B5094C216841B10021084801F086FE46
:10033C00431E58425841800010BD044801F0BAFEDB
:10034C002368002BF4D0EFE738020020580200207D
:10035C0038B50B4B0B4CDA68C723E362E36A5500E4
:10036C000133B3EB420F08D36563FFF7D9FF606B22
:10037C00A8420CBF0520012038BD0320FCE700BFBC
:10038C0038020020002C01401049114A886A12687A
:10039C000130B2FBF0F210B50E4C23696469B2FB6C
:1003AC00F3F263435343501E0B4AB3FBF2F3CA6A96
:1003BC00824202D14A6B9A4205D0C8624B63FFF766
:1003CC00AFFF002010BD0420FCE700BF002C014053
:1003DC00000000203802002040420F0010B50A4CEB
:1003EC00FFF786FFFFF79CFFA36823B923684BB187
:1003FC00FFF7CAFF06E0236823B1FFF7A9FFA36844
:10040C00002BF3D0002010BD3802002008B500F0FE
:10041C0089F90025FFF7D2FEFFF792FE00F0E0F815
:10042C0003F0B6F8064E074C337813B13570FFF76E
:10043C0005FF2378002BF7D02570FFF7CFFFF2E7ED
:10044C00340200205002002072B6FEE70E4B82B040
:10045C009A6942F001029A619A6902F001020092D3
:10046C00009ADA6942F08052DA61DB69074A03F0DC
:10047C0080530193019B536823F0E06343F00073B6
:10048C00536002B0704700BF0010024000000140F2
:10049C00FEE7FEE7FEE7FEE7FEE7704770477047B2
:1004AC0000F052B9014800F049BB00BF6C0F0020AE
:1004BC00FFF7F8BF0120704708B503F09FFC162327
:1004CC0003604FF0FF3008BD08B503F097FC16230E
:1004DC000360FEE770B50D4614460E46731B9C4236
:1004EC0001DC204670BDAFF3008006F8010BF5E788
:1004FC0070B50D4614460E46731B9C4201DC20461B
:10050C0070BD16F8010BAFF30080F5E74FF0FF302C
:10051C0070474FF4005300204B6070470120704728
:10052C00002070470B4A0346116810B509B90A49F7
:10053C001160106809490A4C0344091B8B4206D907
:10054C0003F05CFC0C2303604FF0FF3010BD136014
:10055C00FCE700BF54020020C8150020005000200A
:10056C0000040000704700000268084B82B09A42F9
:10057C000AD103F564439A6942F400629A619B695B
:10058C0003F400630193019B02B07047002C0140FF
:10059C0010B5044686B01022002102A803F083FB9C
:1005AC0022680D4B9A4215D103F564439A690B48A6
:1005BC0042F004029A619B694FF4807203F00403C9
:1005CC000193019B0223CDE90223032302A9059386
:1005DC0000F030F906B010BD002C014000080140BD
:1005EC0010B5002492B01C22214603A8CDE9014489
:1005FC0003F059FB214620220AA803F054FB40F2D9
:10060C00DB23214821498460C0E9001340F2CF73F9
:10061C00C0E9033480234461836101F0FFFB08B11E
:10062C00FFF712FF184801A9CDE9014401F044FD80
:10063C0008B1FFF709FF002460224FF4FA73124847
:10064C00CDE9032303A92246CDE90544CDE90744AE
:10065C00099401F03BFC08B1FFF7F6FE4FF4005390
:10066C0009480AA9CDE90A44CDE90C440E940F932C
:10067C00119401F04FFD08B1FFF7E6FE0248FFF7B9
:10068C0087FF12B010BD00BF58020020002C0140A3
:10069C00FFF768FF0B480C490C4A002302E0D458C2
:1006AC00C4500433C4188C42F9D3094A094C0023B2
:1006BC0001E013600432A242FBD303F0A5FBFFF769
:1006CC00A5FE704700000020D8010020484D00080E
:1006DC00D8010020C8150020FEE7000038B50E4BED
:1006EC0005461A784FF47A73B3FBF2F30B4A106891
:1006FC00B0FBF3F000F08AF8044658B90F2D09D876
:10070C00024629464FF0FF3000F042F82046044BD9
:10071C001D6038BD0120FCE7040000200000002013
:10072C0008000020074A08B51368032043F01003A3
:10073C00136000F01BF80F20FFF7D0FFFFF786FEC9
:10074C00002008BD00200240034A044B11681B78AE
:10075C000B441360704700BFA0020020040000206F
:10076C00014B1868704700BFA00200200749030224
:10077C00CA6803F4E06322F4E0621204120C13431F
:10078C0043F0BF6343F40033CB60704700ED00E0EF
:10079C00154B30B5DC68C4F30224C4F10703251DE6
:1007AC00042B28BF0423062D4FF0FF3594BF0024E3
:1007BC00033C05FA03F321EA0303A54022EA0502F0
:1007CC00A340002843EA0203ACBF00F16040074A93
:1007DC004FEA0313DBB2ABBF00F5614000F00F0032
:1007EC0080F80033135430BD00ED00E014ED00E050
:1007FC00002807DB01234109034A00F01F00834056
:10080C0042F82130704700BF00E100E00138B0F140
:10081C00807F0BD24FF0E023F021054A586182F81B
:10082C0023100020072298611A617047012070473D
:10083C0000ED00E02DE9F74F00221646644F654BA2
:10084C00DFF894C1DFF894E10D6835FA06F402D1B3
:10085C0003B0BDE8F08F4FF0010808FA06F805EA7E
:10086C00080438EA05057AD14D68032D07D8013DF7
:10087C00022D00F28780DFE805F0959AA000122D7A
:10088C0000F098806DD8112D00F08E80FF2C98BF51
:10089C0082464FF00F0988BF00F1040A4FEA860523
:1008AC00DAF8008088BF203D09FA05FB28EA0B081E
:1008BC0002FA05F548EA0505CAF80050D1F804A07B
:1008CC001AF0805F4BD0BD6926F0030845F0010596
:1008DC00BD61BD6908F1804805F00105019508F579
:1008EC00803806F0030B019D4FEA8B0BD8F80850AB
:1008FC0009FA0BF925EA0909394DA84261D005F529
:10090C008065A8425FD005F58065A8425DD005F5ED
:10091C008065A8420CBF0325042505FA0BF545EAB2
:10092C000905C8F808509D681AF4801F14BF2543A8
:10093C00A5439D60DD681AF4001F14BF2543A54331
:10094C00DD605D681AF4003F14BF2543A5435D606C
:10095C001D681AF4803F14BF2543A5431D60013662
:10096C0072E7DFF880904D450CD017D8A9F58019A7
:10097C004D4507D009F570294D4503D0A9F58019CF
:10098C004D4583D18A68D2B1012A08BFC0F81080C6
:10099C004FF0080218BFC0F8148077E76545F1D016
:1009AC007545EEE7CA6871E7CA6804326EE7CA6833
:1009BC0008326BE7CA680C3268E7002266E704224B
:1009CC0064E70025A9E70125A7E70225A5E700BFF5
:1009DC0000100240000401400000311000003210F1
:1009EC0000080140000022100AB10161704709049F
:1009FC00FBE7F0B5044687B010B390F8A93203F0CA
:100A0C00FF021BB980F8A82202F0A8FE032325469A
:100A1C006E4684F8A93255F8100B01F0B1FB0FCDDE
:100A2C000FC62B68271D3360264697E80E0056F834
:100A3C00100B01F095FB054620B1022384F8A93276
:100A4C0001254BE00146206801F0A4FB29464FF03C
:100A5C00010E28250A46D4F804C0C8B2844501F119
:100A6C0001011BD8002328251946D8B2844503F16F
:100A7C0001031FD8EC4635460FCDACE80F002B68B0
:100A8C00CCF8003097E80E00206801F085FB0123BC
:100A9C000546E0B1022284F8A922D1E705FB004308
:100AAC00C3E90E2283F829E083F8280083F82B2071
:100ABC001A64D2E705FB0042C2E95E1182F86911A3
:100ACC0082F8680182F86B11C2F88011CDE784F8C6
:100ADC002400206884F8A93201F016FE284607B0DD
:100AEC00F0BD38B590F8A8320446012B10D0012582
:100AFC0080F8A852006801F03AFB2946204602F023
:100B0C0040FF206801F0FEFD002084F8A80238BDEB
:100B1C000220FCE710B590F8A8220446012A0BD05D
:100B2C00012280F8241080F8A822006801F0E4FD6E
:100B3C00002084F8A80210BD0220FCE72DE9F04F3C
:100B4C00044685B0006801F0E1FD10F4004500F0AA
:100B5C002484DFF81C93DFF81C832068B0F8443041
:100B6C001F0402D405B0BDE8F08FB0F84460B1B2F8
:100B7C0016F00F0640F0C68011F010012BD103883F
:100B8C009BB203EA090343F400430380B0F85030EE
:100B9C0094F828209BB203EBC20300EB4303B3F899
:100BAC000434E26BC3F309031A4463642046E26322
:100BBC0002F00BFE94F82430002BCED0226C21686E
:100BCC00002ACAD194F8243043F08003A1F84C30A9
:100BDC0084F82420C1E70588ABB215F4006521D058
:100BEC00B0F8503094F868219BB203EBC20300EBD1
:100BFC004303B3F80C34B4F86E21C3F30903C4F8FF
:100C0C00843104F52C7101F0AFFF22682046138863
:100C1C0023F070031B051B0D43F08003138002F0BF
:100C2C00C5FD9AE7190498D5038823F070031B05BA
:100C3C001B0D43F080030380B0F8503094F868210A
:100C4C009BB203EBC20300EB4303B3F80C34C3F3C6
:100C5C000903C4F884318BB1D4F87C1171B1B4F8A8
:100C6C006E2101F081FFD4F87C31D4F8842129461F
:100C7C0013442046C4F87C3102F09EFD21680A889A
:100C8C0093B212053FF569AF03F44053B3F5405FDF
:100C9C003FF463AFB1F8503001F20C409BB2C25A32
:100CAC00C2F30902C252D4F878213E2A0CD9550954
:100CBC00D706C25A08BF05F1FF3592B242EA852227
:100CCC0042EA080292B204E09AB9C25A92B242F4D1
:100CDC000042C2520B8823F4804323F070031B04A0
:100CEC001B0C83F4405343F4004343F080030B800C
:100CFC0033E75508D607C25A48BF013592B242EACB
:100D0C008522DFE730F826301A049FB240F1F180DB
:100D1C00282130F8263001FB064123F070031B0517
:100D2C001B0D43F0800320F8263091F8743100F548
:100D3C00806CB3B9B0F8503091F868219BB206338F
:100D4C0003EBC2033CF81350C5F30905002D00F06A
:100D5C00B4802B46B1F86E21D1F87C1101F004FF60
:100D6C00ABE091F86B2191F86831022A40F0848055
:100D7C00B0F850504FEAC30BADB217F4804AD1F81B
:100D8C0080215D4407F0400E39D002353CF81550F7
:100D9C00C5F30905954213D90022C1F8802130F81A
:100DAC00232022F4804222F070021204120C82F4EE
:100DBC00005242F4004242F0800220F8232004E06A
:100DCC00521BC1F88021002AE9D0BEF1000F0DD0D2
:100DDC0030F8232022F4E04222F070021204120CAC
:100DEC0042F4004242F0C00220F82320002D64D0CF
:100DFC00282101FB06412B46B1F87021ACE70635E2
:100E0C003CF81550C5F30905954212D9C1F880A1DB
:100E1C0030F8232022F4804222F070021204120CCB
:100E2C0082F4005242F4004242F0800220F8232067
:100E3C0004E0521BC1F88021002AE9D0BEF1000F5A
:100E4C000DD130F8232022F4E04222F0700212047B
:100E5C00120C42F4004242F0C00220F8232065B389
:100E6C00282101FB06412B46B1F8722174E700BF23
:100E7C000F8FFFFF0080FFFF30F8232022F4E042A9
:100E8C0022F070021204120C42F4004242F0C00232
:100E9C0020F8232091F8682130F82230D20013F486
:100EAC00804FB0F850309BB255D0023313443CF80D
:100EBC001350C5F30905002D9DD1282171436318EA
:100ECC00D3F884212A44C3F88421D3F87C212A4402
:100EDC00C3F87C21D3F880211AB1D3F878319D4224
:100EEC0042D2282303FB0643204693F8681102F0F4
:100EFC0063FC3B0620687FF530AE282230F82630A4
:100F0C0002FB06459BB203EA090343F4004320F8B5
:100F1C00263095F82B30012B50D1002195F8343028
:100F2C00296493B317F0400795F8292095F82830D9
:100F3C0031D002BBB0F850201B0192B200F2044039
:100F4C0010441A5AC2F309021A521A5A92B242F4B3
:100F5C0000421A5219E006331A443CF81250C5F3F9
:100F6C000905002DA9D07EE701F5B4712068214454
:100F7C0001F0E2FBBDE7012A07D1B0F8502000F2E6
:100F8C00044092B21B011044195295F828102046C7
:100F9C0002F01BFCE1E532B9B0F850201B0192B213
:100FAC0000F20C40CCE7012AEFD1B0F8502000F24F
:100FBC000C4092B21B0110441F52E6E795F8281022
:100FCC0017F4807C2B6C4FEAC10A00F5806E1BD1A4
:100FDC00B0F85070BFB2574402373EF81770C7F3E1
:100FEC0009079F4202D3C5F840C0D0E7DB1B2B6436
:100FFC00EB6B06FB02223B44EB636B6CA1183B448E
:10100C006B6401F099FBA8E5B0F8502017F0400C88
:10101C0092B2524407F4804700F0DC8002323EF872
:10102C0012204FF0280CC2F309029A4228BF002369
:10103C000CFB064C38BF9B1ACCF84030BFB2002BCF
:10104C004DD195F82920002A36D1B0F8502000F265
:10105C00044692B20B011644F25AC2F30902F25240
:10106C00F25A92B242F40042F252B0F8502000F21E
:10107C000C4092B21044C25AC2F30902C252C25A74
:10108C0092B242F40042C252204602F09EFB002F64
:10109C0000F0DC8095F82810226832F8213023F417
:1010AC00E04323F070031B041B0C43F4404343F058
:1010BC00800322F82130C9E0012AE5D1B0F850C0F4
:1010CC0000F204461FFA8CFC0A016644B352B0F8D5
:1010DC00506000F20C40B6B230448352D4E76FB18A
:1010EC0030F8213023F4E04323F070031B041B0C75
:1010FC0043F4404343F0800320F82130282707FBBA
:10110C00064797F84C30012B40F0A080FB6BD7F8CA
:10111C0048E003EB020C7B6CC7F83CC013447B64C7
:10112C00BB6B9E452CD3AEEB0302BA6495F8292019
:10113C001FFA83FE002A41D1B0F8507000F204422D
:10114C00BFB23A440901575A3E2BC7F3090757520D
:10115C0023D9DF06575A4FEA531A08BF0AF1FF3A50
:10116C00BFB247EA8A2747EA0807BFB2575228227C
:10117C007346614602FB0642128E01F0CDFA65E021
:10118C00BEF1000F03D1134687F84CE0CEE70023E5
:10119C0087F84C30BB647346C8E72BB9535A9BB2E3
:1011AC0043F400435352E2E75F08DB07535A48BF4E
:1011BC0001379BB243EA87239BB2F3E7012AD6D1CE
:1011CC00B0F8502000F2044392B21344090123F802
:1011DC0001E0CCE706323EF81220BFB2C2F309029E
:1011EC009A4288BF63464FF0280C0CFB064C98BF04
:1011FC009B1ACCF84030002B4ED195F82920002AB0
:10120C0037D1B0F8502000F2044692B20B011644CC
:10121C00F25AC2F30902F252F25A92B242F400426A
:10122C00F252B0F8502000F20C4092B21044C25A64
:10123C00C2F30902C252C25A92B242F40042C252E2
:10124C00204602F0C2FA002F3FF424AF95F8281084
:10125C00226832F821309BB223F4E04323F04003A0
:10126C0083F0300343F4004343F0800322F8213031
:10127C0073E4012AE4D1B0F850C000F204461FFA1E
:10128C008CFC0A016644B352B0F8506000F20C407A
:10129C00B6B230448352D3E76FB930F8213023F41F
:1012AC00E04323F070031B041B0C43F4404343F056
:1012BC00800320F821304FF0280C0CFB064C9CF8D6
:1012CC004C30012BC2D1DCF84430DCF83C701344B8
:1012DC00DCF848E0CCF84430DCF8383017449E4554
:1012EC00CCF83C7027D3AEEB0302CCF8482095F831
:1012FC0029201FFA83FC002A43D1B0F850E000F2F9
:10130C000C421FFA8EFE7244090132F801E03E2BAA
:10131C00CEF3090E22F801E01BD94FEA531EDB066F
:10132C00535A08BF0EF1FF3E9BB243EA8E2343EAA9
:10133C0008039BB212E0BEF1000F03D113468CF8E8
:10134C004CE0D4E70023CCF848308CF84C30734692
:10135C00CDE75BB9535A9BB243F400435352282355
:10136C0003FB064639466346728E06E74FEA530E78
:10137C00DB07535A48BF0EF1010E9BB243EA8E2392
:10138C00D7E7012AEBD1B0F8502000F20C4392B20F
:10139C0013440A0123F802C0E1E7460512D522687E
:1013AC002046B2F8443023F480631B041B0CA2F8D3
:1013BC00443002F016FA2946204605B0BDE8F04F3D
:1013CC00FFF7A8BB41040AD52268B2F8443023F4D5
:1013DC0080431B041B0CA2F84430FFF7C3BB8204F0
:1013EC0005D52268B2F8443023F40053F1E7C30466
:1013FC0019D522682046B2F8403023F004031B04B0
:10140C001B0CA2F84030B2F8403023F008031B0448
:10141C001B0CA2F8403002F007FA2268B2F84430F4
:10142C0023F48053D5E7070548D56846226806465D
:10143C001146134602F1200533F8047B9D4226F831
:10144C00027BF9D1B2F840309BB243F00103A2F811
:10145C004030B2F8403023F001031B041B0CA2F8FF
:10146C004030B2F844305E05FBD5B2F8443023F47A
:10147C0080631B041B0CA2F8443030F8023B21F8AB
:10148C00043B8D42F9D1B2F8403020469BB243F078
:10149C000803A2F84030B2F8443023F400631B0474
:1014AC001B0CA2F84430B2F840309BB243F004035A
:1014BC00A2F8403002F0A8F9FFF754BB82050DD515
:1014CC0022682046B2F8443023F400731B041B0C32
:1014DC00A2F8443002F081F9FFF744BBC3057FF555
:1014EC0041AB2268B2F8443023F4807371E700BF3B
:1014FC0011F0800F70B5054601F007004FF0280180
:10150C001AD0012400FB011129444C70022BCB7022
:10151C0008BF0023087008BF0B710A6195F8A83248
:10152C00012B13D00123286885F8A83200F048FE5F
:10153C00002085F8A80270BD002601FB00F404F51C
:10154C00B4712C44294484F86961DFE70220F2E786
:10155C0011F0800F10B501F0070204464FF028017E
:10156C0013D0012302FB011101444B700A7094F853
:10157C00A832012B13D00123206884F8A83200F084
:10158C007FFF002084F8A80210BD01FB02F303F5D5
:10159C00B47101440344002083F86901E6E702209A
:1015AC00F2E770B52824002601F007014C43051919
:1015BC0085F8681104F5B4710144C5E95F23C5F8D9
:1015CC00846185F86961006801F0B6F8304670BD39
:1015DC00282301F0070103FB0100D0F884017047B8
:1015EC0070B501F00705282101FB05040026C4E9AC
:1015FC000F23012205FB011184F84C200144A36444
:10160C00666484F8292084F82850006801F094F866
:10161C00304670BD38B5436801F007059D4204465D
:10162C0028D811F0800F4FF028031AD005FB033394
:10163C00C11801234B7001230D708B7094F8A822F4
:10164C009A4219D0206884F8A83200F0ECFF25B932
:10165C00206804F52C7101F05DF8002084F8A802D4
:10166C0038BD00224B4303F5B4710344014483F8A5
:10167C006921E0E70120F3E70220F1E738B5436880
:10168C0001F00F029A42044626D811F0800F01F0A7
:10169C0007024FF0280115D0012302FB0111014470
:1016AC004B7000250A708D7094F8A832012B15D060
:1016BC000123206884F8A83200F0D5FF284684F86E
:1016CC00A85238BD01FB02F303F5B4710144034485
:1016DC00002083F86901E4E70120F2E70220F0E73B
:1016EC0010B5282411F0800F1BBF01F0070101FB7E
:1016FC00044404FB0100001908BF00F5B47099B252
:10170C001AB90273C180002010BD012283600273DC
:10171C00F9E700002DE9F341054638B30368DB0710
:10172C0010D42B689F075ED42B68190700F19580A5
:10173C002B685A0700F1C180E869002840F02C8121
:10174C00002029E0904C636803F00C03042B07D0B5
:10175C00636803F00C03082B0AD16368DE0307D51A
:10176C0023689C03DDD56B68002BDAD1012013E0D4
:10177C006B68B3F5803F12D1236843F48033236048
:10178C00FEF7EEFF064623689803CAD4FEF7E8FF7F
:10179C00801B6428F7D9032002B0BDE8F0819BB907
:1017AC00236823F480332360236823F4802323608D
:1017BC00FEF7D6FF064623689903B2D5FEF7D0FF95
:1017CC00801B6428F7D9E6E7B3F5A02F236803D173
:1017DC0043F480232360CFE723F480332360236812
:1017EC0023F48023CBE7684C636813F00C0F07D00D
:1017FC00636803F00C03082B10D16368DA030DD473
:10180C0023689B0702D52B69012BAFD123686A692A
:10181C0023F0F80343EAC203236085E72A695B4B94
:10182C006AB101221A60FEF79BFF064623689F07E8
:10183C00ECD4FEF795FF801B0228F7D9ABE71A60B2
:10184C00FEF78EFF0646236898077FF56DAFFEF70F
:10185C0087FF801B0228F6D99DE7AA694A4E4B4B9D
:10186C00E2B10122C3F88024FEF77AFF0446736AC2
:10187C009B070DD54FF4FA52454B1B68B3FBF2F3A3
:10188C00019300BF019B5A1E0192002BF9D14FE727
:10189C00FEF766FF001B0228E9D97CE7C3F8802419
:1018AC00FEF75EFF0446736A9F077FF541AFFEF7B4
:1018BC0057FF001B0228F6D96DE7334CE369D800BB
:1018CC0024D40127E36943F08053E361E36903F017
:1018DC0080530093009B2F4E3368D90518D5EB68C5
:1018EC00012B26D1236A43F001032362FEF738FF54
:1018FC0041F288380646236A9B073FD5002F3FF4F8
:10190C001BAFE36923F08053E36115E70027E2E79F
:10191C00336843F480733360FEF722FF80463368EC
:10192C00DA05DCD4FEF71CFFA0EB08006428F6D91E
:10193C0031E7ABB9236A41F2883823F00103236203
:10194C00236A23F004032362FEF70AFF0646236A88
:10195C009807D3D5FEF704FF801B4045F7D91AE74B
:10196C00052B236A03D143F004032362BAE723F067
:10197C0001032362236A23F00403B6E7FEF7F0FEAB
:10198C00801B4045B7D906E70010024000004242D8
:10199C0000000020007000402A4C636803F00C0328
:1019AC00082B3ED00022284B02281A662CD1FEF7B9
:1019BC00D7FE06462368990120D42B6AB3F5803FE5
:1019CC0005D16268A96822F400320A436260696A30
:1019DC0062680B4322F474121343012263601A4BA6
:1019EC001A66FEF7BDFE054623689A013FF5A8AEC0
:1019FC00FEF7B6FE401B0228F6D9CCE6FEF7B0FE89
:101A0C00801B0228D6D9C6E6FEF7AAFE0546236837
:101A1C009B017FF595AEFEF7A3FE401B0228F6D97D
:101A2C00B9E601283FF4B8AE63682A6A03F4803142
:101A3C0091427FF49BAE6A6A03F4701393423FF4B5
:101A4C007FAE93E600100240000042420D4A5368FC
:101A5C0003F00C01082912D10B48C3F38341DB03BB
:101A6C00405C09D55368094AC3F340435043084AC4
:101A7C00D35CB0FBF3F07047064B584370470348F8
:101A8C00704700BF00100240044B000800127A009F
:101A9C00144B000800093D002DE9F0410D460446A9
:101AAC0010B90120BDE8F081444A136803F0070324
:101ABC008B4228D321688E0730D4CA0743D43F4ABF
:101ACC00136803F00703AB4265D822683C4D12F053
:101ADC00040F6CD1130706D56B68226923F460538D
:101AEC0043EAC2036B60FFF7B1FF6B68354AC3F37F
:101AFC000313D35CD840344B1860344B1868FEF792
:101B0C00EDFD0020CEE7136823F007030B431360B1
:101B1C00136803F007038B42C3D1CBE7284B11F0BA
:101B2C00040F1EBF5A6842F4E0625A60080742BFB5
:101B3C005A6842F460525A605A68A06822F0F00267
:101B4C0002435A60B9E762681D4E012A33681AD104
:101B5C0013F4003FA5D0736841F2883823F00303D7
:101B6C0013437360FEF7FCFD07467368626803F06D
:101B7C000C03B3EB820FA2D0FEF7F2FDC01B404565
:101B8C00F3D903208EE7022A02D113F0007FE1E79C
:101B9C0013F0020FDEE7136823F007032B431360E7
:101BAC00136803F00703AB427FF47BAF8DE76B68E0
:101BBC00E16823F4E0630B436B608BE70020024089
:101BCC0000100240F44A0008000000200800002029
:101BDC0003682DE9F341D907054621D5364CE36955
:101BEC00DA0033D40126E36943F08053E361E369FF
:101BFC0003F080530193019B304F3B68DB0527D5E5
:101C0C00236A6A6813F4407336D1236A6A6823F432
:101C1C004073134323621EB1E36923F08053E361E5
:101C2C002868830706D52449AB684A6822F44042E9
:101C3C001A434A6010F010001BD01F4AE968536821
:101C4C00002023F480030B43536012E00026D3E7FB
:101C5C003B6843F480733B60FEF782FD80463B6833
:101C6C00D805CDD4FEF77CFDA0EB08006428F6D98E
:101C7C00032002B0BDE8F08102F440729A42C4D055
:101C8C0001200F4A236AC2F84004002023F440715B
:101C9C00C2F840042162D907B7D5FEF761FD41F2C5
:101CAC0088380746236A9A07AFD4FEF759FDC01B44
:101CBC004045F7D9DCE700BF00100240007000403F
:101CCC0000004242036A026A70B522F0010202620D
:101CDC00446882690D6822F073022A438D6823F0F0
:101CEC0002032B430A4DA8420BD1CD6823F0080305
:101CFC002B4324F44074D1E90556354323F00403F7
:101D0C002C43446082614A684263036270BD00BF29
:101D1C00002C0140036A026A70B522F480720262E0
:101D2C004468C2690D6822F073022A438D6823F45B
:101D3C00007343EA05230B4DA8420DD1CD6823F463
:101D4C00006343EA052324F44054D1E90556354396
:101D5C0023F4806344EA05144460C2614A68C26398
:101D6C00036270BD002C0140036A026A30B522F494
:101D7C00805202624468C2690D6822F4E64242EA6B
:101D8C0005228D6823F4005343EA0533064DA8421F
:101D9C0002BF4D6924F4804444EA85144460C26156
:101DAC004A680264036230BD002C01401A4A036881
:101DBC0090420AD0B0F1804F07D0A2F594329042F5
:101DCC0003D002F58062904215D14A6823F070036B
:101DDC001343114A90420AD0B0F1804F07D0A2F5BC
:101DEC009432904203D002F58062904203D1CA68CB
:101DFC0023F4407313434A6923F0800313430360B5
:101E0C008B68C3620B688362034B984204BF0B69F7
:101E1C000363012343617047002C014010B5044655
:101E2C0030B390F83D3003F0FF021BB980F83C2032
:101E3C00FEF79AFB0223206884F83D30211DFFF742
:101E4C00B5FF0123002084F8463084F83E3084F836
:101E5C003F3084F8403084F8413084F8423084F8C4
:101E6C00433084F8443084F8453084F83D3010BD5C
:101E7C000120FCE7036A026A70B522F010020262CC
:101E8C00446882690D6822F4E64242EA05228D68B4
:101E9C0023F0200343EA05130B4DA8420DD1CD6866
:101EAC0023F0800343EA051324F44064D1E905567A
:101EBC00354323F0400344EA8504446082614A6858
:101ECC008263036270BD00BF002C014070B590F8B6
:101EDC003C300546012B50D00123082A80F83C30B9
:101EEC003BD007D8C2B1042A27D01846002385F866
:101EFC003C3070BD0C2AF8D10068FFF735FFC36980
:101F0C000A6943F40063C361C36923F48063C3614A
:101F1C00C36943EA02232EE00068FFF7D3FE83690E
:101F2C000A6943F008038361836923F00403836126
:101F3C008369134383610020D8E70068FFF79AFF99
:101F4C0083690A6943F400638361836923F48063C2
:101F5C008361836943EA0223ECE70068FFF7DAFE4A
:101F6C00C3690A6943F00803C361C36923F004031E
:101F7C00C361C3691343C361DDE70220B9E710B540
:101F8C000124036A01F01F018C4023EA040303625D
:101F9C00036A8A401A43026210BD000008B529B9D1
:101FAC0090F83E30012B21D0012008BD042907D127
:101FBC0090F83F30012BF7D1022380F83F3018E026
:101FCC00082907D190F84030012BEDD1022380F87D
:101FDC0040300EE090F84130012BE5D10429EBD0D4
:101FEC000829F3D0022380F8413002E0022380F864
:101FFC003E3000680122FFF7C2FF0E4B98420AD117
:10200C00436C43F400434364836803F00703062BDB
:10201C000BD10020C9E7B0F1804FF5D0064B9842A8
:10202C00F2D003F580639842EED0036843F00103CD
:10203C000360EEE7002C014000040040FFF7AEBF48
:10204C0038B50022044600680D46FFF798FF184B80
:10205C0098420DD141F21113026A1A4208D140F292
:10206C004443026A1A4202BF436C23F400434364A4
:10207C0041F21113026A1A4208D140F24443026A37
:10208C001A4202BF036823F00103036001231DB948
:10209C0084F83E30002038BD042D02D184F83F3046
:1020AC00F8E7082D0CBF84F8403084F84130F1E794
:1020BC00002C0140FFF7C4BF30B590F83C3002460D
:1020CC00012B4FF0020022D0136882F83D005C68AF
:1020DC000D6824F070042C4398685C600C4CA3428F
:1020EC000AD0B3F1804F07D0A4F59434A34203D0A7
:1020FC0004F58064A34204D1496820F080000143B8
:10210C0099600123002082F83D3082F83C0030BDFC
:10211C00002C014090F83C300246012B1ED0CB68BD
:10212C00886823F440730343486823F480630343B3
:10213C00086823F400630343086923F480530343C2
:10214C00486923F4005303430020C96923F48043F6
:10215C000B4311684B6482F83C00704702207047B7
:10216C0084B001A880E80E0004B00020704703463C
:10217C004FF43F420020A3F84400A3F840207047DE
:10218C00B0F8403023F47C535B045B0CA0F8403077
:10219C00002070470020704784B010B5044603A897
:1021AC0080E80E0000200123A4F84030A4F8400081
:1021BC00A4F84400A4F85000BDE8104004B07047E7
:1021CC00F0B50A78CD7830F82240034624F4EC447C
:1021DC0024F070042404240C032D4BD8DFE805F004
:1021EC0002474543284644F4007448F280063443C1
:1021FC0023F8224033F822409E4FA4B23C401443B3
:10220C00344323F822400C7B03EB021C002C40F0DF
:10221C008B80CC884E78640864006EB3B3F8501091
:10222C0089B26144A1F8004433F82210490609D55B
:10223C0033F8221089B2394041F4004141F0C00119
:10224C0023F8221033F822108B4C89B2012D01EAAD
:10225C00040101D081F0200141F4004141F08001E2
:10226C0023F822104AE044F4C0640020BDE744F493
:10227C008064FAE70120B8E7B3F850500969ADB2B1
:10228C006544A5F80844B3F850403E29A4B2644410
:10229C00B4F80C54C5F30905A4F80C542FD94D0906
:1022AC00CE06B4F80C1408BF05F1FF3589B241EA2B
:1022BC0085216FEA41416FEA514189B2A4F80C14AF
:1022CC0033F822104F040DD533F8221021F4E041DD
:1022DC0021F070010904090C41F4404141F08001E6
:1022EC0023F82210654CC2B91A8892B2224082F4AB
:1022FC00405242F4004242F080021A80F0BD11B903
:10230C00B4F80C14D5E74D08C907B4F80C1448BF41
:10231C00013589B241EA8521CFE733F8221089B221
:10232C00214081F4005197E7022D33F822405BD114
:10233C00A4B23C4044F4014444F0800423F822400D
:10234C00B3F850400E89A4B2760864447600A4F821
:10235C0000644E89B3F850407608A4B26444760009
:10236C00A4F808644978002948D133F822104E04A7
:10237C000DD533F8221021F4E04121F0700109044D
:10238C00090C41F4404141F0800123F8221033F84C
:10239C0022104D060DD533F8221021F4E04121F026
:1023AC0070010904090C41F4004141F0C00123F80B
:1023BC00221048F2800433F8221021F4804121F0DD
:1023CC0070010904090C81F44051214323F82210B7
:1023DC0033F8221021F4E04121F040010904090CEA
:1023EC000C4323F8224089E724F4E24424F07004DF
:1023FC002404240C264323F82260A1E733F822108E
:10240C004C040DD533F8221021F4E04121F0700179
:10241C000904090C41F4404141F0800123F82210D9
:10242C0033F8221049060DD533F8221021F4E0417F
:10243C0021F070010904090C41F4004141F0C00184
:10244C0023F8221033F822100B4C89B22140012DB5
:10245C0018BF81F0200141F4004141F0800123F8C4
:10246C00221033F8221021F4804121F0700109046C
:10247C00090CF1E68F8FFFFFBF8FFFFF8FBFFFFFB0
:10248C004A780B78097BD9BB0AB330F82320510664
:10249C000DD530F8232022F4E04222F07002120411
:1024AC00120C42F4004242F0C00220F8232030F813
:1024BC00232022F4E04222F040021204120C42F4D7
:1024CC00004242F0800220F823200020704730F8B0
:1024DC00232052040DD530F8232022F4E04222F0C0
:1024EC0070021204120C42F4404242F0800220F8B6
:1024FC00232030F8232022F4804222F07002DCE703
:10250C00002A4AD130F8232051040DD530F823206D
:10251C0022F4E04222F070021204120C42F4404207
:10252C0042F0800220F8232030F8232052060DD5EB
:10253C0030F8232022F4E04222F070021204120C34
:10254C0042F4004242F0C00220F8232048F28001FD
:10255C0030F8232022F4E04222F070021204120C14
:10256C0042F4004242F0C00220F8232030F823202D
:10257C0022F4804222F070021204120C0A4320F85A
:10258C00232030F8232022F4E04222F040021204EF
:10259C00120C114320F8231097E730F82320510434
:1025AC000DD530F8232022F4E04222F07002120400
:1025BC00120C42F4404242F0800220F8232030F802
:1025CC00232052060DD530F8232022F4E04222F0CD
:1025DC0070021204120C42F4004242F0C00220F8C5
:1025EC00232048F2800130F8232022F4E04222F02C
:1025FC0070021204120C42F4404242F0800220F8A5
:10260C00232030F8232022F4E04222F0400212046E
:10261C00120C0A4320F8232030F8232022F48042A5
:10262C0022F07002B3E74B780A788BB130F8223085
:10263C0023F4E04323F040031B041B0C83F0100332
:10264C0043F4004343F0800320F82230002070470D
:10265C0030F8223023F4804323F070031B041B0C4E
:10266C0083F48053ECE70B7B3BBB4B780A7833B39A
:10267C0030F822305B060DD530F8223023F4E043DD
:10268C0023F070031B041B0C43F4004343F0C00302
:10269C0020F82230CB78012B0FD030F8223023F4E5
:1026AC00E04323F040031B041B0C83F0200343F492
:1026BC00004343F0800320F822300020704730F8AC
:1026CC0022305B040DD530F8223023F4E04323F0A4
:1026DC0070031B041B0C43F4404343F0800320F8AD
:1026EC00223030F8223023F4804323F070031B0493
:1026FC001B0C83F44053DAE711B98023A0F84C305B
:10270C00002070470020704700207047B0F844004C
:10271C0080B270470020704700EB4200013300F597
:10272C0080605B0800EB8303834200D1704731F873
:10273C00022B20F8042BF7E72DE9F0470C464978DB
:10274C0005460129227B40F01881D4F81090A76926
:10275C0061694F4528BF4F460ABBBFB2E2883B4672
:10276C00FFF7DAFFB5F85000217880B205F2044289
:10277C00090102448F52227835F8223023F4E043C9
:10278C0023F040031B041B0C83F03003002043F4A4
:10279C00004343F0800325F82230BDE8F087E3784E
:1027AC0094F800E0022B266A4FEA0E1C40F0D08011
:1027BC00B14530F82E2080F0B48022F4E04222F0B3
:1027CC0070021204120C42F4014242F0800220F812
:1027DC002E2030F82E80B0F850E0F61B18F0400890
:1027EC00266201EB070ABBB21FFA8EFE4ED000F236
:1027FC000C42724422F80C306289FFF78DFFB14510
:10280C0036BFF31B00233E4662782362C4F814A043
:10281C00B3B27ABBB5F85020207892B205F20441DD
:10282C0000011144425A3E2EC2F30902425215D9FC
:10283C00F206425A4FEA561708BF07F1FF3792B219
:10284C0042EA87226FEA42426FEA524292B2425205
:10285C00228951462846FFF75FFF8CE70EB9425A92
:10286C00F0E7425A7708F60748BF013792B242EABE
:10287C008722EBE7012AEBD1B5F85000217880B222
:10288C0005F20442090102448B52E1E700F20442D2
:10289C00724422F80C302289FFF73EFFB14536BF57
:1028AC00F31B43463E4662782362C4F814A0B3B2CD
:1028BC005ABBB5F85020207892B205F20C410001B9
:1028CC001144425A3E2EC2F30902425211D9F20669
:1028DC00425A4FEA561708BF07F1FF3792B242EA45
:1028EC0087226FEA42426FEA524292B242526289A6
:1028FC00AFE70EB9425AF4E7425A7708F60748BFD9
:10290C00013792B242EA8722EFE7012AEFD1B5F8FC
:10291C005000217880B205F20C42090102448B521E
:10292C00E5E722F4E24222F070021204120C42F4A7
:10293C00004242F0800220F82E20B0F8503000F215
:10294C0004429BB21A44B3B222F80C30228982E7BB
:10295C0030F82E20F61B2662B0F850605206BBB23F
:10296C00B6B206D500F20C42324422F80C30628921
:10297C0071E700F204423244E6E7D2B9A369216957
:10298C00B0F850008B4284BF5A1A0B462178A261D2
:10299C0080B205F20C4209010244505A3E2BC0F39E
:1029AC000900505200F2C580002B40F0D280535ADF
:1029BC00C8E0E378022B7CD100294BD1B0F8503021
:1029CC0020789BB205F2044100011944435AC3F329
:1029DC000903435223693E2B20D9425A5E09DF0674
:1029EC0008BF06F1FF3692B242EA86226FEA4242F3
:1029FC006FEA524292B24252B5F85000227880B23D
:102A0C0005F20C4112010144505A3E2BC0F309004F
:102A1C00505210D8002B43D1535A15E00BB9425ADF
:102A2C00E4E7DA07425A4FEA530648BF013692B23E
:102A3C0042EA8622DEE75809DF06535A08BF00F146
:102A4C00FF309BB243EA80236FEA43436FEA534360
:102A5C009BB25352E369BBB144F24003227835F880
:102A6C00221003EA01008B4300D068B935F82230FC
:102A7C0023F4E04323F070031B041B0C43F40043CA
:102A8C0043F0C00325F82230227835F8223023F4A5
:102A9C00804323F070031B041B0C83F4405375E636
:102AAC005808DE07535A48BF01309BB243EA8023D3
:102ABC00CEE7012B56D1A3692269934294BF002023
:102ACC00981AA06188BF13460029DDD1B5F85020B3
:102ADC00207892B205F2044100011144425A3E2B77
:102AEC00C2F30902425218D9DA06425A4FEA531677
:102AFC0008BF06F1FF3692B242EA86226FEA4242E2
:102B0C006FEA524292B24252B5F85000227880B22B
:102B1C0005F20C41120101443FE70BB9425AEDE7B3
:102B2C00425A5E08DF0748BF013692B242EA86225B
:102B3C00E8E75809DE06535A08BF00F1FF309BB294
:102B4C0043EA80236FEA43436FEA53439BB25352E9
:102B5C009AE75808DB07535A48BF01309BB243EA47
:102B6C008023F3E7012018E600EB4200F0B500F5F6
:102B7C0080605D080C4607462E46023436B9DB07EA
:102B8C0044BF30F8253001F81530F0BD37F8042B70
:102B9C00013E92B204F8022C120A04F8012CECE764
:102BAC00D0F8BC3210B56BB1D0F8B84294F8000232
:102BBC00FF2807D09B68214694F801229847FF23F1
:102BCC0084F80032002010BD432303800048704776
:102BDC0044000020432303800048704788000020F5
:102BEC004323038000487047D80000200A23038049
:102BFC0000487047CC00002038B50446D0F8B852D5
:102C0C0000F0B5FED4F8B832C5F80C024BB1D4F8CC
:102C1C00BC32D5F80402DB6805F503719847002037
:102C2C0038BD0220FCE7F8B5D0F8B862D6B1142450
:102C3C0004FB0103DC69D0F8C0527CB1282707FBE8
:102C4C000152926BB4FBF2F502FB154434B9DC6112
:102C5C002246234600F079FE2046F8BD0020C6F837
:102C6C001402FAE70220F8E72DE9F7434FF00008C9
:102C7C000A78054612F060040E46D0F8B8728DF84A
:102C8C000580ADF8068028D0202C42D1CC884B781A
:102C9C00E4B1120611D5D0F8BC223946D2F808900E
:102CAC0018462246C84739462846F28800F02FFCC1
:102CBC004446204603B0BDE8F0832246394687F8E7
:102CCC00003287F8014200F037FCF1E7D0F8BC2263
:102CDC00184695682246A847EBE74B780A2B0CD090
:102CEC000B2B12D0ABB990F89C32032B11D10222D2
:102CFC000DF1060100F00BFCDBE790F89C32032B86
:102D0C0007D101220DF10501F4E790F89C32032B59
:102D1C00CFD03146284600F0D3FB0224C9E738B5A2
:102D2C0004460025812100F0DAFD01212046E562F0
:102D3C0000F0D5FD82212046C4F86C5100F0CFFD87
:102D4C00D4F8B83225644BB1D4F8BC325B689847E0
:102D5C00D4F8B80200F014FEC4F8B852002038BD04
:102D6C002DE9F041037C0446B3BB4FF40073812181
:102D7C00022200F0A8FD01214FF40073E16201264C
:102D8C000222204600F09FFD0823032282212046C8
:102D9C00C4F86C6100F097FD4FF40770266400F0E6
:102DAC00EBFD0546C4F8B80240B34FF00008D4F868
:102DBC00BC321B689847C5F81482C5F81882277C6A
:102DCC009FB94FF4007331462046D5F8042200F029
:102DDC00C5FD3846BDE8F08140238121022200F078
:102DEC0072FD01214023E162C9E7402331462046B0
:102DFC00D5F8042200F0B2FD4746EAE73746E8E78B
:102E0C0019B1C0F8BC120020704702207047D0F8EE
:102E1C00B8320020C3F80812C3F810227047D0F85B
:102E2C00B8320020C3F804127047D0F8B82210B59D
:102E3C0082B1047CD2F8042234B94FF4007301211E
:102E4C0000F08CFD204610BD4023012100F086FDD2
:102E5C000024F7E70224F5E708B580B1D0F8B432C6
:102E6C0013B10023C0F8B43209B1C0F8B012012379
:102E7C00027080F89C3200F0DBFC002008BD0220C0
:102E8C00FCE719B1C0F8B41200207047022070475B
:102E9C0008B500F00FFD002008BD08B5D0F8B4321D
:102EAC0033B11B689847003818BF0120400008BD9B
:102EBC000220FCE708B5D0F8B4325B6898470020D4
:102ECC0008BD38B500F52A750446284600F0E4FA2A
:102EDC00012394F8A812C4F89432B4F8AE32C4F8B2
:102EEC00983201F01F03012B08D0022B0BD07BB9B9
:102EFC002946204600F0FCF8002038BD2946204623
:102F0C0000F01EFAF8E72946204600F03DFAF3E7F8
:102F1C00204601F0800100F0EBFCEDE7F8B504462B
:102F2C0017460D4639BBD0F89432032B1CD1D0E98F
:102F3C00586296420BD9B61AB2423946C0F8606153
:102F4C008CBFB2B292B200F004FB2846F8BDD0F8A8
:102F5C00B4321B6923B190F89C22032A00D1984704
:102F6C00204600F0FEFAF0E7052BEED1C4F89412DF
:102F7C0000F0BEFCE9E7D0F8B4329B6933B190F8AD
:102F8C009C22032A02D198470025DEE70225DCE7C4
:102F9C00F8B5044617460D46002947D1D0F89432AF
:102FAC00022B3CD1D0E908639E4214D9F61A39465B
:102FBC000662B2B200F0B8FA2B462A4629462046E1
:102FCC0000F0CCFC94F8A032012B02D1002384F841
:102FDC00A0322846F8BDC269B2FBF3F603FB1626F5
:102FEC005EB9934209D8D0F898329A4205D20A4673
:102FFC0000F09AFAC4F89852DEE7D4F8B432DB68E1
:10300C002BB194F89C22032A01D1204698478021A9
:10301C00204600F06DFC204600F0AEFAD2E733F00B
:10302C000403CFD1802100F063FCCBE7D0F8B4329D
:10303C005B6933B190F89C22032A02D19847002592
:10304C00C7E70225C5E7002270B5044601254026D6
:10305C001146402300F037FC3346802100222046E5
:10306C00C4F85851C4F8646100F02DFC0021D4F868
:10307C00B832A561666284F89C52C4F894126160FF
:10308C00C4F8A41223B1D4F8B43220465B68984734
:10309C00002070BD01740020704790F89C3280F8BD
:1030AC009D32042380F89C320020704790F89C32AB
:1030BC00042B04BF90F89D3280F89C32002070479E
:1030CC0008B590F89C22032A04D1D0F8B432DB69FD
:1030DC0003B19847002008BD10B50446802100F0CC
:1030EC0007FC2046BDE81040002100F001BC0000A8
:1030FC0037B50B78044603F06003202B0D4612D035
:10310C00402B10D0002B51D14B78092B4ED8DFE837
:10311C0013F0EE0009014D0002014D008700130071
:10312C004D00D600A300D4F8B432294620469B6843
:10313C009847002003B030BD0023ADF806304B8813
:10314C001A0A013A062A31D8DFE802F004162330B5
:10315C0030485200D0F8B0321B68207C0DF10601CB
:10316C009847BDF80620EB88002A55D0002B4AD191
:10317C00204600F0F6F9DCE7027CD0F8B43232B924
:10318C009B6A0DF10600984702234370E9E7DB6A5E
:10319C00F7E7DBB2052B09D8DFE803F0030C1014BA
:1031AC00181CD0F8B0325B68002BD6D12046FFF744
:1031BC0093FFBEE7D0F8B0329B68F5E7D0F8B03299
:1031CC00DB68F1E7D0F8B0321B69EDE7D0F8B0322C
:1031DC005B69E9E7D0F8B0329B69E5E7037C002B2B
:1031EC00E4D1D0F8B4320DF106005B6B9847B8E728
:1031FC00037C002BDAD1D0F8B4320DF106001B6B36
:10320C0098470723C1E79A4228BF1A460146204631
:10321C00ADF8062000F07BF9EB88002B89D1A7E7ED
:10322C008B88002BC2D1CB88002BBFD14D887F2D32
:10323C00BCD890F89C32032BB8D0E9B280F89E121F
:10324C0000F07AFB204600F08CF91DB1022384F8C3
:10325C009C326EE70123FAE78978384D01292970F1
:10326C00A4D890F89C32022B08D0032B15D0FFF772
:10327C0033FF20462978FFF71DFE5AE700293FF45B
:10328C0077AF01210323416080F89C322046FFF781
:10329C0004FE02287FF46CAF88E731B90223416049
:1032AC0080F89C32FFF706FE62E7416801293FF483
:1032BC005FAFC9B2FFF7FEFD29786160E6E7CA8807
:1032CC00012A7FF473AF90F89C32022B0AD8002BA2
:1032DC003FF46CAF0146002341F8083F204600F054
:1032EC0016F926E7032B7FF461AF011DF6E790F882
:1032FC009C32013B022B3FF659AFCA88022A7FF45D
:10330C0055AFD0F8A4320146002B14BF0323012380
:10331C0041F80C3FE2E74B88012B7FF40AAFC4F86D
:10332C00A43225E790F89C32013B022B3FF63EAFCE
:10333C004B88012B7FF4FDAE0023F0E7A4020020A4
:10334C0038B50B78044603F06002402A0D4601D0D4
:10335C005B0615D494F89C32013B022B10D82B79C8
:10336C00012B0DD8D4F8B43229469B6820469847D7
:10337C00EB881BB910B9204600F0F3F8002038BDDB
:10338C002046FFF7A9FEF9E738B50A78044602F0A3
:10339C006002202A0B468D882CD0402A2AD0BABB3A
:1033AC005A78E9B2012A43D0032A2BD082BB90F879
:1033BC009C32022B53D0032B2AD1142201F00F0381
:1033CC0015F0800F02FB03035AD09B6903B314253D
:1033DC0001F07F0303FB0555054411F07F0005D078
:1033EC00204600F097FA003818BF01200222294627
:1033FC00286041E0D4F8B4221946204692689047E0
:10340C00002038BD90F89C22022A1FD0032A03D03A
:10341C002046FFF761FEF3E75A882AB94A0603D023
:10342C00DB880BB900F064FA204600F09AF8E7E765
:10343C0090F89C22022A09D0032AE9D15B88002B40
:10344C00DED14D06F0D000F05CFAEDE74B06DFD094
:10345C0000F04EFA8021204600F04AFAD0E74A06E6
:10346C00D6D12B064FF000034FF002024CBF00F1F7
:10347C00140100F5AA710B60204600F048F8BFE774
:10348C00D3F85831002BC3D0142301F07F0503FB74
:10349C00050505F5AA75A0E70B7803704B7843700A
:1034AC00CA788B7803EB022343804A790B7903EBC0
:1034BC0002238380CA798B7903EB0223C380704784
:1034CC0010B50446802100F013FA2046BDE81040E8
:1034DC00002100F00DBA30B588B100240138234624
:1034EC000134055D002DFAD1DBB201335B00138092
:1034FC000B7003234B70022310F8014F04B930BD3D
:10350C005A1CCC54D2B20233DBB28D54F4E71346BE
:10351C00022210B5C0E90733C0F894220A460021F4
:10352C0000F013FA002010BD08B513460A4600211E
:10353C0000F00BFA002008BD1346032210B5C0E9B9
:10354C005733C0F894220A46002100F007FA0020F5
:10355C0010BD08B513460A46002100F0FFF9002003
:10356C0008BD08B50423C0F8943200231A46194646
:10357C0000F0EBF9002008BD08B50523C0F8943223
:10358C0000231A46194600F0E9F9002008BD000096
:10359C0008B500220E490F48FFF75EFC08B1FCF796
:1035AC0053FF0D490B48FFF76CFC08B1FCF74CFFBF
:1035BC000A490848FFF724FC08B1FCF745FF054809
:1035CC00FFF766FC18B1BDE80840FCF73DBF08BD2D
:1035DC002C010020A80200200C0000201C0100205F
:1035EC00002070470020704770B50D4604460E4E03
:1035FC0001463046FFF713FC3046FFF716FC0B4B29
:10360C0040221846002100F04EFB2D7821462A4618
:10361C0000F021FC2A460021204600F044FB012248
:10362C00034B00201A7070BDA8020020F40100208A
:10363C003402002010B5064C002220460549FFF745
:10364C00E6FB20460449FFF7EAFB002010BD00BF53
:10365C00A80200206C0900206C05002012230148F0
:10366C000B80704748010020042301480B807047F1
:10367C005C010020002370B51E464D1C040FB0F1F8
:10368C00204F34BF3034373401F8134005F8136041
:10369C000133DCB2A2424FEA0010EFD870BD00003B
:1036AC001A2310B50B800A4BD3F8E807D3F8F02790
:1036BC0080180AD0D3F8EC4706490822FFF7DAFF46
:1036CC00042220461031FFF7D5FF034810BD00BF80
:1036DC0000F0FF1F620100206001002010B5044CB7
:1036EC000A4604482146FFF7F6FE204610BD00BFEF
:1036FC006C0D0020164B000810B5044C0A4604480B
:10370C002146FFF7E8FE204610BD00BF6C0D0020DF
:10371C00294B000810B5044C0A4604482146FFF713
:10372C00DAFE204610BD00BF6C0D00203F4B000898
:10373C0010B5044C0A4604482146FFF7CCFE20463F
:10374C0010BD00BF6C0D00204A4B000803289ABF27
:10375C00014B185C02207047584B000807B5124B00
:10376C0002689A421DD103F5DA33DA69132042F468
:10377C000002DA610022DB69114603F400030193B5
:10378C00019BFDF705F81320FDF732F800221420F9
:10379C001146FCF7FDFF142003B05DF804EBFDF7B8
:1037AC0027B803B05DF804FB005C004000F52C71F9
:1037BC00D0F8EC02FFF785BB282303FB0103D0F8FC
:1037CC00EC02D3F87C21FFF7A9BB282303FB0103F0
:1037DC00D0F8EC02DA6BFFF7DBBBD0F8EC02FFF7AA
:1037EC006FBC836810B5022B044601D0FCF72CFE8D
:1037FC00D4F8EC020121FFF74DFCD4F8EC02BDE843
:10380C001040FFF720BC000010B50446D0F8EC02C5
:10381C00FFF743FCA36923B1024A136943F0060383
:10382C00136110BD00ED00E0D0F8EC02FFF73EBCD8
:10383C00082310B51D4A04461D48C0E90023022385
:10384C0083600023C0F8EC42C4F8C002C0E9063320
:10385C000362FDF7CEF808B1FCF7F6FD0022182341
:10386C001146D4F8C002FDF73BFF582300228021FB
:10387C00D4F8C002FDF734FFC02300228121D4F814
:10388C00C002FDF72DFF4FF4887300220121D4F8FC
:10389C00C002FDF725FF4FF4807300228221D4F87B
:1038AC00C002FDF71DFF002010BD00BF005C0040F2
:1038BC006C0F002008B5D0F8C002FDF712F9BDE876
:1038CC000840FFF743BF10B51446D0F8C0021A46A3
:1038DC002346FDF70DFEBDE81040FFF737BF08B5D6
:1038EC00D0F8C002FDF734FEBDE80840FFF72EBF4C
:1038FC0008B5D0F8C002FDF78DFEBDE80840FFF713
:10390C0025BF08B5D0F8C002FDF7B8FEBDE80840E9
:10391C00FFF71CBF282211F0800FD0F8C0321BBF5C
:10392C0001F07F0101FB022202FB01339B1814BF43
:10393C00987893F86A01704708B5D0F8C002FDF783
:10394C00E9F8BDE80840FFF701BF08B5D0F8C002A0
:10395C00FDF746FEBDE80840FFF7F8BE08B5D0F805
:10396C00C002FDF71EFEBDE80840FFF7EFBED0F821
:10397C00C002FDF72DBE0000004870475C1200200D
:10398C00704770470A22002100F07EB8012B2DE908
:10399C00F0478646904601D0242B06D900F02EFA2B
:1039AC00162303600020BDE8F0870D4635482A46F3
:1039BC0015F8014B065D16F00806F8D12D2C2ED10A
:1039CC0001262C78951C002B57D0102B09D1302CAC
:1039DC0007D12A7802F0DF02582A49D110236C78DB
:1039EC000235002206F1004C0CF1FF3CBCFBF3F954
:1039FC00104603FB19CAA4F13007092F14D83C4612
:103A0C00A34220DD571C07D0814519D301D1A24513
:103A1C0016DB012200FB034015F8014BEBE72B2CC6
:103A2C0004BF2C78951CCEE7A4F14107192F01D8BF
:103A3C00373CE5E7A4F16107192F04D8573CDFE7C1
:103A4C004FF0FF32E8E7531C08D122236046CEF832
:103A5C000030B8F1000FA6D0691E06E006B1404256
:103A6C00B8F1000F9FD0002AF6D1C8F800109AE7E1
:103A7C003024002BB5D10823B3E7302CA9D00A236E
:103A8C00AFE700BF5D4B000813460A4601460248EB
:103A9C000068FFF77BBF00BFD4010020002310B5E6
:103AAC000446C0E90033C0E9043383608181436676
:103ABC00C2818361194608225C3000F0F4F80D4B8A
:103ACC00246263620C4BA3620C4BE3620C4B2363CA
:103ADC000C4B9C4206D003F16802944202D0D033C6
:103AEC009C4205D104F15800BDE8104000F0B0B97B
:103AFC0010BD00BF2D3C00084F3C0008873C00085F
:103B0C00AB3C00087C140020024A0349034800F037
:103B1C0069B800BF7C010020B94100088801002071
:103B2C0041680C4B10B59942044601D000F03EFBA5
:103B3C00A168094B994202D0204600F037FBE1689E
:103B4C00064B994204D02046BDE8104000F02EBB35
:103B5C0010BD00BF7C140020E41400204C15002084
:103B6C0010B50B4B0B4C0C4A20461A60042100225A
:103B7C00FFF794FF04F1680001220921FFF78EFF83
:103B8C0004F1D0000222BDE810401221FFF786BFDD
:103B9C00B41500207C140020153B0008014800F0EF
:103BAC0058B900BFBD150020014800F053B900BF43
:103BBC00BD15002010B50446FFF7F0FF236A1BB1BA
:103BCC00BDE81040FFF7F0BF044B2362044B1B68A9
:103BDC00002BF5D1FFF7C4FFF2E700BF2D3B000827
:103BEC00B41500202DE9F8430746884614460026F4
:103BFC00D4E90195B9F1010905D52468002CF7D158
:103C0C003046BDE8F883AB89012B07D9B5F90E30E6
:103C1C00013303D029463846C04706436835E9E7E7
:103C2C0010B50C46B1F90E1000F0C4F80028ABBF6B
:103C3C00636DA3891B1823F48053ACBF6365A38108
:103C4C0010BD2DE9F0411F468B890546DB050C465E
:103C5C00164605D502230022B1F90E1000F098F893
:103C6C00A389324623F48053A38128463B46B4F9FA
:103C7C000E10BDE8F04100F0AFB810B50C46B1F92C
:103C8C000E1000F085F8431CA38915BF606523F462
:103C9C00805343F48053A38118BFA38110BDB1F9A5
:103CAC000E1000F065B803460244934200D17047F1
:103CBC0003F8011BF9E70000164B2DE9F0411F68D2
:103CCC0005467C6C0E46ECB9502000F039F90246E2
:103CDC00786420B95B21104B104800F0CBF8C0E998
:103CEC000044C0E90244C0E90444C0E90A44C0E904
:103CFC000C44C0E90E44C0E91044C0E9124484618C
:103D0C0004774462314628467A6C0123BDE8F041C1
:103D1C0000F006B8D40100205D4C0008744C00087B
:103D2C00F0B508B9106888B104460F46204614F85F
:103D3C00015B17F8016B1EB965B92846156005E0E3
:103D4C00B542F6D1002BF0D114600370F0BD1C46C7
:103D5C000CE015B90E4614F8013B16F8015BAB42AA
:103D6C00F7D1002BF3D0002304F8013C1460EDE7ED
:103D7C0038B50023054D044608462B60FCF7C6FBFE
:103D8C00431C02D12B6803B1236038BDB815002049
:103D9C0038B50446084611460022054D2A601A46DD
:103DAC00FCF7BEFB431C02D12B6803B1236038BD6A
:103DBC00B815002038B50446084611460022054DBA
:103DCC002A601A46FCF786FB431C02D12B6803B110
:103DDC00236038BDB815002038B504460846114696
:103DEC000022054D2A601A46FCF782FB431C02D1C7
:103DFC002B6803B1236038BDB8150020014B18683F
:103E0C00704700BFD401002070B500260C4D0D4C3E
:103E1C00641BA410A64209D100F05AFE00260A4DDC
:103E2C000A4C641BA410A64205D170BD55F8043B86
:103E3C0098470136EEE755F8043B98470136F2E710
:103E4C00404D0008404D0008404D0008444D00080E
:103E5C007047704770470A44914200F1FF3300D11C
:103E6C00704710B511F8014B914203F8014FF9D18D
:103E7C0010BD00001FB514461A46094B05461B68B9
:103E8C00D8684CB1074BCDE9013400912B4606495B
:103E9C0000F0B4F900F0D4F9044B1C46F3E700BF72
:103EAC00D4010020CE4C0008DB4C0008094D000862
:103EBC0038B50546002940D051F8043C0C1F002BA6
:103ECC00B8BFE41800F0E4F81C4A136833B9636017
:103EDC0014602846BDE8384000F0E0B8A34208D989
:103EEC00206821188B4201BF19685B680918216092
:103EFC00EDE71A465B680BB1A342FAD9116850186A
:103F0C00A0420BD120680144501883421160E0D1CB
:103F1C0018685B68084410605360DAE702D90C2318
:103F2C002B60D6E7206821188B4201BF19685B68AB
:103F3C000918216063605460CBE738BDC0150020C0
:103F4C00024B0146186800F023B800BFD4010020D2
:103F5C0070B50E4E0C463168054611B900F060F98B
:103F6C0030602146284600F05BF9431C0AD0C41C83
:103F7C0024F00304A04207D0211A284600F050F97F
:103F8C00013001D14FF0FF34204670BDC415002024
:103F9C002DE9F843CD1C25F0030508350C2D38BF51
:103FAC000C25002D074601DBA94205D90C23002660
:103FBC003B603046BDE8F883DFF8D08000F068F84D
:103FCC00D8F800301C465CBB29463846FFF7C0FFCA
:103FDC00431C044655D1D8F800402646002E45D146
:103FEC00002C48D023683146384604EB030900F016
:103FFC0017F981453FD1216838466D1A2946FFF7DC
:10400C00A7FF013037D023682B442360D8F8003049
:10401C00002B38D05A68A2422BD100225A600FE0F4
:10402C002268521B1FD40B2A17D96119A342256091
:10403C0018BF5960636808BFC8F8001062514B6024
:10404C00384604F10B0600F029F826F00706231D6C
:10405C00F21AAED09B1BA350ABE7A3426268DDD132
:10406C00C8F80020ECE723466468ACE73446766871
:10407C00B4E71346CCE70C2338463B6000F00EF84F
:10408C0097E72560DCE75B60FFDE00BFC015002012
:10409C000148FFF7DEBE00BFBC1500200148FFF74A
:1040AC00D9BE00BFBC1500208A89F8B5054610079B
:1040BC000C4657D44B68002B04DC0B6C002B01DC3A
:1040CC000020F8BDE66A002EFAD0002312F48052CC
:1040DC002F68216A2B6032D0606DA3895A0705D5F1
:1040EC006368C01A636B0BB1236CC01A00230246C1
:1040FC00E66A2846216AB047431CA38906D1296881
:10410C001D292BD8284A0A41D60727D400226260E1
:10411C002269D904226004D5421C01D12B6803B951
:10412C006065616B2F600029CAD004F14403994289
:10413C0002D02846FFF7BCFE00206063C1E70123D4
:10414C002846B047411CC8D12B68002BC5D01D2B6D
:10415C0001D0162B01D12F60B2E7A38943F04003A5
:10416C00A381AEE70F69002FAAD0930718BF0023D5
:10417C000E6808BF4B69F61B0F608B60002E9FDD2D
:10418C0033463A462846216AD4F828C0E04700282E
:10419C0006DCA3894FF0FF3043F04003A38190E786
:1041AC000744361AEAE700BFFEFFBFDF38B50B69DC
:1041BC0005460C4613B90025284638BD18B1036ACC
:1041CC000BB9FFF7F7FCB4F90C30002BF3D0626E8F
:1041DC00D00704D4990502D4A06DFFF73AFE284607
:1041EC002146FFF761FF636E0546DA07E4D4A38925
:1041FC009B05E1D4A06DFFF72DFEDDE70EB403B5F2
:10420C00014603AB054853F8042B0068019300F0FA
:10421C0045F802B05DF804EB03B07047D401002000
:10422C0038B50023054D044608462B60FCF77AF997
:10423C00431C02D12B6803B1236038BDB815002094
:10424C00062008B500F096FB0120FCF73DF99368B9
:10425C0010B4013B002B936007DA9469A34201DB95
:10426C000A2902D110BC00F0C7BA1368581C1060A0
:10427C001970084610BC7047F8B506460F46144630
:10428C00D518AC4201D1002007E03A46304614F86C
:10429C00011BFFF7DCFF431CF3D1F8BD2DE9F04FF8
:1042AC000D461446984606469DB018B1036A0BB9E4
:1042BC00FFF780FC6B6ED90705D4AB899A0502D445
:1042CC00A86DFFF7C6FDAB891B0701D52B699BB900
:1042DC002946304600F0CEFA70B16B6EDC0704D57F
:1042EC004FF0FF301DB0BDE8F08FAB899805F7D4C7
:1042FC00A86DFFF7AFFDF3E70023099320238DF89A
:10430C00293030234FF00109CDF80C80DFF8AC8157
:10431C008DF82A3023469A4613F8012B0AB1252A28
:10432C00F9D1BAEB040B0BD05B462246294630463A
:10433C00FFF7A2FF013000F0A980099A5A440992B4
:10434C009AF80030002B00F0A18000234FF0FF32D0
:10435C00CDE905230AF1010A049307938DF8533034
:10436C001A935446052214F8011B544800F01EFB06
:10437C00049AD8B9D10644BF20238DF853301307C3
:10438C0044BF2B238DF853309AF800302A2B15D0CC
:10439C00544600204FF00A0C079A214611F8013BB5
:1043AC00303B092B4DD9B0B1079214E0A0EB0803B8
:1043BC0009FA03F31343A2460493D2E7039B191D96
:1043CC001B680391002BBBBF5B4242F002020793B8
:1043DC000793B8BF049223782E2B0CD163782A2B29
:1043EC0034D1039B02341A1D1B680392002BB8BFF7
:1043FC004FF0FF330593DFF8C8A003225046217815
:10440C0000F0D4FA38B14022049BA0EB0A008240A1
:10441C0013430134049314F8011B062229488DF828
:10442C00281000F0C3FA00283FD0274B1BBB039B7E
:10443C00073323F0070308330393099B3B44099389
:10444C0068E70C4601200CFB0232A6E700234FF074
:10445C000A0C194601340593204610F8012B303A0A
:10446C00092A03D9002BC6D00591C4E704460123C1
:10447C000CFB0121F0E703AB00932A463046134BAB
:10448C0004A9AFF300800746781CD6D16B6ED90710
:10449C0005D4AB899A0502D4A86DFFF7DBFCAB8978
:1044AC005B063FF51DAF09981CE703AB00932A464A
:1044BC003046064B04A900F07DF8E4E70A4D0008ED
:1044CC00104D0008144D0008000000008542000843
:1044DC002DE9F047164699468A680B6907469342C0
:1044EC00B8BF1346336091F843200C46DDF82080AA
:1044FC000AB1013333602368990642BF3368023333
:10450C003360256815F0060506D104F1190AE36835
:10451C0032689B1AAB422BDC94F84320131E2268A2
:10452C0018BF0123920630D44946384604F14302A1
:10453C00C047013023D02368226903F00603042B03
:10454C0014BF002533684FF0000608BFE56804F17E
:10455C001A0408BFED1A54F8123C08BF25EAE57599
:10456C009342C4BF9B1AED18B5421AD1002008E043
:10457C000123524649463846C047013003D14FF01B
:10458C00FF30BDE8F0870135C1E73020E11881F834
:10459C0043005A1C94F845102244023382F843100D
:1045AC00C2E70123224649463846C0470130E6D0CF
:1045BC000136D9E72DE9FF470F7E9146782F8046CB
:1045CC000C469A460C9D01F1430207D8622F0AD87B
:1045DC00002F00F0D580582F00F0C18004F1420567
:1045EC0084F842703AE0A7F16303152BF6D801A1C9
:1045FC0051F823F0594600086D460008E9450008BB
:10460C00E9450008E9450008E94500086D46000841
:10461C00E9450008E9450008E9450008E9450008B6
:10462C0073470008994600082D470008E945000823
:10463C00E945000895470008E94500089946000837
:10464C00E9450008E9450008354700082B681A1DA4
:10465C001B682A6004F1420584F842300123A0E073
:10466C0020682B68070603F10401296001D51E6838
:10467C0003E04606FBD5B3F90060002E03DA2D23C8
:10468C00764284F843300A23594812E02B6820689C
:10469C00191D2960050601D51E6802E04106FBD5EF
:1046AC001E886F2F0CBF08230A235148002184F861
:1046BC0043106568002DA8BF2168A560A4BF21F038
:1046CC00040121600EB9002D4BD01546B6FBF3F159
:1046DC0003FB1167C75D05F8017D3746BB420E46EB
:1046EC00F4D9082B0BD12368DE0708D52369616840
:1046FC009942DEBF302305F8013C05F1FF35521B12
:10470C0022614B4621464046CDF800A003AAFFF794
:10471C00DFFE01304AD14FF0FF3004B0BDE8F08726
:10472C00236843F0200323607827324884F84570CF
:10473C00236829681F0651F8046B02D45F0648BF32
:10474C00B6B2DF0748BF43F02003296048BF23609F
:10475C001EB9236823F0200323601023A6E7244806
:10476C00E4E71546BDE72B682668181D61692860CB
:10477C0035061B6801D5196002E07006FBD519805F
:10478C00002315462361BCE72B6800211A1D2A6003
:10479C001D686268284600F009F908B1401B60608A
:1047AC0063682361002384F84330AAE72A4649460C
:1047BC0040462369D0470130ADD023689B0713D402
:1047CC00E068039B9842B8BF1846A6E7012332461F
:1047DC0049464046D04701309DD00135E3680399E6
:1047EC005B1AAB42F2DCEBE7002504F11906F5E7A6
:1047FC001B4D00082C4D0008F8B50E461446054616
:10480C0018B1036A0BB9FFF7D5F9A369A360A389A3
:10481C001A0725D523691BB323682269F6B2981AA7
:10482C0063693746834204DC21462846FFF7BEFC09
:10483C00E0B9A368013BA36023685A1C22601E7078
:10484C006269431C9A4204D0A389DB0706D50A2E61
:10485C0004D121462846FFF7A9FC38B93846F8BDE3
:10486C002146284600F006F80028D5D04FF0FF3737
:10487C00F4E7000038B52A4B054618680C4618B109
:10488C00036A0BB9FFF796F9A389B4F90C20180742
:10489C0022D4D90607D409232B6042F040034FF0F1
:1048AC00FF30A38134E0580712D5616B41B104F19C
:1048BC004403994202D02846FFF7FAFA00236363B7
:1048CC00A38923F02403A38100236360236923605D
:1048DC00A38943F00803A38123694BB9A38903F48B
:1048EC002073B3F5007F03D02146284600F091F8E1
:1048FC00A089B4F90C2010F001030AD00023A360A6
:10490C0063695B42A361236943B910F08000C4D191
:10491C0038BD810758BF6369A360F4E70020F7E74F
:10492C00D40100201F2938B504460D4604D916239E
:10493C0003604FF0FF3038BDC26B12B152F821301A
:10494C004BB9204600F030F82A4601462046BDE817
:10495C00384000F017B8012B0AD0591C03D116238C
:10496C0003600120E7E70024284642F825409847D9
:10497C000020E0E7024B01461868FFF7D3BF00BFE9
:10498C00D401002038B50023064D044608461146D4
:10499C002B60FBF791FD431C02D12B6803B1236004
:1049AC0038BD00BFB8150020FBF784BD034610B519
:1049BC00C9B202449342184601D1002003E00478A6
:1049CC0001338C42F6D110BD70B50C46B1F90E1006
:1049DC00154600291E4696B00CDAA389002113F067
:1049EC00800F0CBF4FF480634023002031602B609C
:1049FC0016B070BD6A4600F049F80028EDDB01994D
:104A0C0001F47041A1F50053594259414FF48063B0
:104A1C00EBE78B8973B59D0706460C4607D504F169
:104A2C004703236023610123636102B070BD6A46B2
:104A3C0001ABFFF7C9FF009905463046FFF7A8FA0E
:104A4C0048B9B4F90C309A05EFD423F0030343F0C2
:104A5C000203A381E3E7A389206043F08003A381D1
:104A6C00009B20616361019B5BB13046B4F90E1071
:104A7C0000F01EF828B1A38923F0030343F00103CF
:104A8C00A381A3891D43A581CFE7000038B500237E
:104A9C00064D0446084611462B60FBF73AFD431CB5
:104AAC0002D12B6803B1236038BD00BFB8150020BC
:104ABC0038B50023054D044608462B60FBF72EFD48
:104ACC00431C02D12B6803B1236038BDB8150020FC
:104ADC00F8B500BFF8BC08BC9E467047F8B500BFDF
:084AEC00F8BC08BC9E467047AF
:104AF400000000000000000001020304060708098A
:104B040002030405060708090A0B0C0D0E0F10100A
:104B1400010253544D6963726F656C656374726FFF
:104B24006E6963730053544D333220566972747541
:104B3400616C20436F6D506F727400434443204393
:104B44006F6E6669670043444320496E74657266FC
:104B54006163650000020102002020202020202043
:104B64002020282828282820202020202020202019
:104B74002020202020202020208810101010101029
:104B84001010101010101010100404040404040475
:104B9400040404101010101010104141414141410F
:104BA40001010101010101010101010101010101F1
:104BB4000101010110101010101042424242424201
:104BC40002020202020202020202020202020202C1
:104BD4000202020210101010200000000000000069
:104BE40000000000000000000000000000000000C1
:104BF40000000000000000000000000000000000B1
:104C040000000000000000000000000000000000A0
:104C14000000000000000000000000000000000090
:104C24000000000000000000000000000000000080
:104C34000000000000000000000000000000000070
:104C44000000000000000000000000000000000060
:104C54000000000000000000005245454E54206D45
:104C6400616C6C6F63207375636365656465640070
:104C74002F6275696C642F676E752D746F6F6C731A
:104C84002D666F722D73746D33325F31312E332E76
:104C940072656C312E32303233303931322D313647
:104CA40030302F7372632F6E65776C69622F6E6577
:104CB400776C69622F6C6962632F737472696E67B3
:104CC4002F737472746F6B2E63002C2066756E6381
:104CD40074696F6E3A2000617373657274696F6EE4
:104CE4002022257322206661696C65643A20666916
:104CF4006C6520222573222C206C696E6520256446
:104D0400257325730A00232D302B2000686C4C007A
:104D140065666745464700303132333435363738B7
:104D24003941424344454600303132333435363715
:0C4D3400383961626364656600000000AD
:044D40003101000835
:044D44000D01000855
:104D48000024F40001000000100000006D2D000890
:104D58002B2D0008752C000800000000AD2B000862
:104D6800332C0008052C000800000000000000009B
:104D780000000000E12B0008D52B0008ED2B0008EF
:104D8800F92B000809024300020100C0320904009F
:104D980000010202010005240010010524010001A0
:104DA80004240202052406000107058203080010F6
:104DB80009040100020A0000000705010240000082
:104DC800070581024000000009024300020100C0FB
:104DD8003209040000010202010005240010010547
:104DE80024010001042402020524060001070582AB
:104DF8000308001009040100020A00000007050169
:104E08000200020007058102000200000A060002F3
:104E1800000000400100000009074300020104C02F
:104E280032090400000102020100052400100105F6
:104E3800240100010424020205240600010705825A
:104E48000308001009040100020A00000007050118
:104E580002400000070581024000000041360008BA
:104E6800ED350008F1350008F53500086936000809
:104E780075360008E936000805370008AD36000821
:104E8800213700083D3700081201000202020040E5
:104E980083044057000201020301000004030904CF
:104EA8001A030000000000000000000000000000DD
:104EB80000000000000000000000000000000000EA
:104EC800030000007C140020000000007C14002077
:104ED800E41400204C150020000000000000000031
:104EE80000000000000000000000000000000000BA
:104EF80000000000000000000000000000000000AA
:104F08000000000000000000000000000000000099
:084F18000000000088010020E8
:040000050800069D4C
:00000001FF
